:020000040800F2
:1000000000000220D90200082D0300082D0300087B
:100010002D0300082D0300082D0300080000000038
:100020000000000000000000000000002D03000898
:100030002D030008000000002D030008DD06000865
:100040002D0300082D0300082D0300082D030008D0
:100050002D0300082D0300082D0300082D030008C0
:100060002D0300082D0300082D0300082D030008B0
:100070002D0300082D0300082D0300082D030008A0
:100080002D0300082D0300082D0300082D03000890
:100090002D0300082D0300082D0300082D03000880
:1000A0002D0300082D0300082D0300082D03000870
:1000B0002D0300082D0300082D0300082D03000860
:1000C0002D0300082D0300082D0300082D03000850
:1000D0002D0300082D0300082D0300082D03000840
:1000E0002D0300082D030008000000002D03000868
:1000F0002D0300082D0300082D0300082D03000820
:100100002D0300082D0300082D0300082D0300080F
:100110002D0300082D0300082D0300082D030008FF
:100120002D0300082D0300082D0300082D030008EF
:100130002D0300082D0300082D0300082D030008DF
:1001400000000000000000000000000000000000AF
:100150002D0300082D0300082D0300082D030008BF
:100160002D0300082D0300082D0300082D030008AF
:100170002D0300082D0300082D03000800000000D7
:100180002D0300082D0300082D0300082D0300088F
:100190002D0300082D0300082D0300082D0300087F
:1001A0002D0300082D0300082D0300082D0300086F
:1001B0002D0300082D0300082D0300082D0300085F
:1001C0002D0300082D0300082D0300082D0300084F
:1001D0002D0300082D0300082D0300082D0300083F
:1001E0002D0300082D0300082D0300082D0300082F
:1001F0002D0300082D0300082D0300082D0300081F
:100200002D0300082D0300082D0300082D0300080E
:100210002D0300082D0300082D0300082D030008FE
:100220002D0300082D0300082D0300080000000026
:100230002D0300082D030008000000002D03000816
:100240002D0300082D0300082D0300082D030008CE
:100250002D0300082D0300082D0300082D030008BE
:100260002D0300082D0300082D0300082D030008AE
:100270002D0300082D0300082D03000800000000D6
:100280002D0300082D0300082D03000800000000C6
:08029000000000002D0300082E
:1002980010B5054C237833B9044B13B10448AFF3B8
:1002A80000800123237010BD3404002000000000EA
:1002B8004008000808B5034B1BB103490348AFF3D6
:1002C800008008BD00000000380400204008000835
:1002D800DFF838D000F0D8F900F0C2F80C480D4922
:1002E8000D4A002302E0D458C4500433C4188C4289
:1002F800F9D30A4A0A4C002301E013600432A242EF
:10030800FBD300F005FA00F0C1F9704700000220A5
:10031800000000203404002078080008340400207D
:1003280058040020FEE70000494BDA6842F0020258
:10033800DA605A689204FCD54649D1F8F42042F0B4
:100348000202C1F8F4209A6942F440429A61404A94
:1003580053689B04FCD54049CB6A43F00103CB6248
:1003680053689804FCD53B4B1A6842F001021A60A6
:100378001A685107FCD51A6822F018021A601A6820
:100388001A605A6822F0FE4242F080425A601A68A7
:1003980022F080721A602F4B196811F00071FBD19E
:1003A8009A6A22F003029A629A6A22F47C7242F0F4
:1003B80080029A621A6B22F4FF7222F0010242F064
:1003C8003B021A631A6B22F47E421A631A6B22F4F8
:1003D800FE0242F480321A631A6B22F0FE4242F0A7
:1003E80080721A63DA6A42F00C02DA62DA6A22F080
:1003F8000202DA62DA6A22F00102DA6259631A68E2
:1004080042F080721A60134B1A689201FCD5482298
:100418009A614FF48862DA6140221A620F4A1368BF
:1004280023F03F0343F024031360136803F00F0322
:10043800042BFAD1074A136923F0070343F0030397
:100448001361136903F03803182BFAD100F07AB856
:100458000048025800440258000400580020005286
:100468002E4AD2F8883043F47003C2F888302C4AF8
:10047800136803F00F03062B05D8136823F00F0346
:1004880043F007031360274B1A6842F001021A6011
:1004980000221A61244A19680A4021491A600A6828
:1004A800100705D50A6822F00F0242F007020A6019
:1004B80000221E499A61DA611A6299621C49D9625E
:1004C8001C4919635A639963DA6319645A64196891
:1004D80021F4802119601A66174B1B681B0C1B043A
:1004E800B3F1005F03D2154B0122C3F808210D4B6D
:1004F800D3F8D420D2040FD4D3F8D42043F2D201B5
:1005080042F48052C3F8D4200D4A1160D3F8D420A5
:1005180022F48052C3F8D420704700BF00ED00E0F9
:1005280000200052004402587FEDF6EA0002020261
:100538000000FF01800201010010005C00800051F2
:1005480000400052474A136903F03803102B30B5B6
:1005580000F0848009D813B1082B00F0818012685C
:10056800414BC2F3C102D34046E0182BF7D1906A41
:10057800956AD46A15F47C7FC5F30513516B3BD09B
:1005880007EE903AC1F3CC0304F0010100F0030038
:10059800F8EEE76A4B430128F7EE005A07EE903A67
:1005A800FAEEE97A3CD002284AD011682E4BC1F302
:1005B800C101126BCB40C2F3080207EE103AB8EE45
:1005C800C76A86EE267A06EE902AF8EEE66A76EE96
:1005D800A77A77EEA57A234B67EE877A1B6BC3F36E
:1005E8004623013307EE103AF8EEC76A87EEA67A7B
:1005F800FCEEC77A17EE903A1A481C498269C2F392
:1006080003228A5CD340826902F00F028A5C18498F
:1006180002F01F0223FA02F20A60164A136030BD84
:10062800136B9FED156AC3F3080307EE103AB8EE93
:10063800C77A77EE277A77EEA57A86EE267ACAE722
:10064800136B9FED0E6AC3F3080307EE103AB8EE7A
:10065800C77A77EE277A77EEA57AEEE7084BCBE7ED
:10066800084BC9E7004402580090D0035808000816
:1006780004000020000000200024744A20BCBE4B67
:1006880040787D0100093D007047000008B5FFF77C
:100698004BFE0E4C00F026F80D4BD3F8E02042F04C
:1006A8001002C3F8E020D3F8E030236823F0C00339
:1006B8002360236843F04003236063694FF47A7032
:1006C80083F00803636100F019F8F6E70010025898
:1006D80000440258024A136801331360704700BF90
:1006E800500400204FF0E023034A5A6100229A6127
:1006F80007221A61704700BFFF520700034A1168BA
:1007080013685B1A8342FBD3704700BF5004002074
:1007180070B50D4E0D4D761BB61006D0002455F859
:10072800043B01349847A642F9D1094E094D761B7E
:1007380000F082F8B61006D0002455F8043B0134C6
:100748009847A642F9D170BD6C0800086C080008EB
:10075800740800086C080008024B13B1024800F046
:1007680005B8704700000000810700080023014613
:100778001A46184600F01AB838B5084B084D5B1BE6
:100788009C1007D0043B1D44013C55F80439984798
:10079800002CF9D1BDE8384000F054B878080008BA
:1007A80074080008704700BF704700BF2DE9F04784
:1007B800DFF880A00646DAF8000098460F46914612
:1007C800FFF7F0FF1A4B1B68D3F8484124B365685C
:1007D8001F2D26DC5EB96B1C0235DAF80000636059
:1007E80044F82570FFF7E0FF0020BDE8F08704EB30
:1007F80085010123C1F88890D4F88821AB401A43B9
:10080800022EC4F88821C1F80881E4D1D4F88C21DB
:100818001343C4F88C31DEE703F5A674C3F84841E6
:10082800D5E7DAF80000FFF7BFFF4FF0FF30DCE74D
:100838006808000830040020F8B500BFF8BC08BC00
:100848009E467047F8B500BFF8BC08BC9E46704786
:10085800000000000102030401020304060708095E
:040868000800002064
:08086C0061070008BD0200084D
:0408740099020008DD
:100878000090D0030090D00300000000F402002094
:100888005C030020C40300200000000000000000FA
:100898000000000000000000000000000000000050
:1008A8000000000000000000000000000000000040
:1008B8000000000000000000000000000000000030
:1008C8000000000000000000000000000000000020
:1008D8000000000000000000000000000000000010
:1008E8000000000000000000000000000000000000
:1008F80000000000000000000000000000000000F0
:1009080000000000000000000000000000000000DF
:1009180000000000000000000000000000000000CF
:1009280001000000000000000E33CDAB34126DE66C
:10093800ECDE05000B0000000000000000000000D5
:10094800000000000000000000000000000000009F
:10095800000000000000000000000000000000008F
:10096800000000000000000000000000000000007F
:10097800000000000000000000000000000000006F
:040CA80054040020D0
:04000005080002D914
:00000001FF
